:100000000C9434000C9451000C9451000C94510049
:100010000C9451000C9451000C9451000C9451001C
:100020000C9451000C9451000C9451000C9451000C
:100030000C9451000C9451000C9451000C945100FC
:100040000C9451000C9451000C9451000C945100EC
:100050000C9451000C9451000C9451000C945100DC
:100060000C9451000C94510011241FBECFEFD8E026
:10007000DEBFCDBF11E0A0E0B1E0EEE3F2E002C0F0
:1000800005900D92AE30B107D9F711E0AEE0B1E0C6
:1000900001C01D92A231B107E1F70E94FC000C944F
:1000A0001D010C9400001092C50057E65093C40047
:1000B0001092C0001092C100FC01E370FF27EE0F08
:1000C000FF1FF6E0220F331FFA95E1F72E2B38E0E1
:1000D000439FA0011124242BA4E0660F771FAA954B
:1000E000E1F7262B2093C2002091C0002D7F2093A2
:1000F000C000079729F48091C10084608093C100FB
:100100008091C10080618093C1008091C1008860AE
:100110008093C10008959091C00095FFFCCF80931B
:10012000C60008958091C00087FFFCCF8091C60073
:100130000895CF93C82F892F0E948B008C2FCF91C9
:100140000C948B008091C00084FD0CC08091C00095
:1001500083FD08C08091C00082FB882780F991E070
:100160008927089580E008958091C000881F88271E
:10017000881F0895BF92CF92DF92EF92FF920F9364
:100180001F93CF93DF93EC01B12CE62EF12C670186
:1001900081E0C81AD1080B2D10E00C151D058CF458
:1001A0000E949200811105C0C00FD11F188281E00A
:1001B0000DC08A30C9F3FE01E00FF11F8083B394B4
:1001C000EACFCE0DDF1D2197188280E0DF91CF911D
:1001D0001F910F91FF90EF90DF90CF90BF90089507
:1001E000CF93DF93EC018991882319F00E948B0053
:1001F000FACFDF91CF910895CF93DF93CDB7DEB7DC
:10020000EC970FB6F894DEBF0FBECDBF20E030E014
:1002100040E060E070E083E090E00E945300259AA7
:100220002D986AE0CE0101960E94BA0081112D9AA4
:0E023000CE0101960E94F000F3CFF894FFCFAC
:0E023E00040108015345450052455345540044
:00000001FF
